{
    "contractName": "MembershipNFT",
    "abi": [
        {
            "inputs": [
                {
                    "internalType": "address",
                    "name": "_trustedForwarder",
                    "type": "address"
                }
            ],
            "stateMutability": "nonpayable",
            "type": "constructor"
        },
        {
            "anonymous": false,
            "inputs": [
                {
                    "indexed": false,
                    "internalType": "address",
                    "name": "previousAdmin",
                    "type": "address"
                },
                {
                    "indexed": false,
                    "internalType": "address",
                    "name": "newAdmin",
                    "type": "address"
                }
            ],
            "name": "AdminChanged",
            "type": "event"
        },
        {
            "anonymous": false,
            "inputs": [
                {
                    "indexed": true,
                    "internalType": "address",
                    "name": "owner",
                    "type": "address"
                },
                {
                    "indexed": true,
                    "internalType": "address",
                    "name": "approved",
                    "type": "address"
                },
                {
                    "indexed": true,
                    "internalType": "uint256",
                    "name": "tokenId",
                    "type": "uint256"
                }
            ],
            "name": "Approval",
            "type": "event"
        },
        {
            "anonymous": false,
            "inputs": [
                {
                    "indexed": true,
                    "internalType": "address",
                    "name": "owner",
                    "type": "address"
                },
                {
                    "indexed": true,
                    "internalType": "address",
                    "name": "operator",
                    "type": "address"
                },
                {
                    "indexed": false,
                    "internalType": "bool",
                    "name": "approved",
                    "type": "bool"
                }
            ],
            "name": "ApprovalForAll",
            "type": "event"
        },
        {
            "anonymous": false,
            "inputs": [
                {
                    "indexed": true,
                    "internalType": "address",
                    "name": "beacon",
                    "type": "address"
                }
            ],
            "name": "BeaconUpgraded",
            "type": "event"
        },
        {
            "anonymous": false,
            "inputs": [
                {
                    "indexed": false,
                    "internalType": "uint8",
                    "name": "version",
                    "type": "uint8"
                }
            ],
            "name": "Initialized",
            "type": "event"
        },
        {
            "anonymous": false,
            "inputs": [
                {
                    "indexed": true,
                    "internalType": "bytes32",
                    "name": "role",
                    "type": "bytes32"
                },
                {
                    "indexed": true,
                    "internalType": "bytes32",
                    "name": "previousAdminRole",
                    "type": "bytes32"
                },
                {
                    "indexed": true,
                    "internalType": "bytes32",
                    "name": "newAdminRole",
                    "type": "bytes32"
                }
            ],
            "name": "RoleAdminChanged",
            "type": "event"
        },
        {
            "anonymous": false,
            "inputs": [
                {
                    "indexed": true,
                    "internalType": "bytes32",
                    "name": "role",
                    "type": "bytes32"
                },
                {
                    "indexed": true,
                    "internalType": "address",
                    "name": "account",
                    "type": "address"
                },
                {
                    "indexed": true,
                    "internalType": "address",
                    "name": "sender",
                    "type": "address"
                }
            ],
            "name": "RoleGranted",
            "type": "event"
        },
        {
            "anonymous": false,
            "inputs": [
                {
                    "indexed": true,
                    "internalType": "bytes32",
                    "name": "role",
                    "type": "bytes32"
                },
                {
                    "indexed": true,
                    "internalType": "address",
                    "name": "account",
                    "type": "address"
                },
                {
                    "indexed": true,
                    "internalType": "address",
                    "name": "sender",
                    "type": "address"
                }
            ],
            "name": "RoleRevoked",
            "type": "event"
        },
        {
            "anonymous": false,
            "inputs": [
                {
                    "indexed": true,
                    "internalType": "address",
                    "name": "from",
                    "type": "address"
                },
                {
                    "indexed": true,
                    "internalType": "address",
                    "name": "to",
                    "type": "address"
                },
                {
                    "indexed": true,
                    "internalType": "uint256",
                    "name": "tokenId",
                    "type": "uint256"
                }
            ],
            "name": "Transfer",
            "type": "event"
        },
        {
            "anonymous": false,
            "inputs": [
                {
                    "indexed": true,
                    "internalType": "address",
                    "name": "implementation",
                    "type": "address"
                }
            ],
            "name": "Upgraded",
            "type": "event"
        },
        {
            "inputs": [],
            "name": "CLAIM_ISSUER_ROLE",
            "outputs": [
                {
                    "internalType": "bytes32",
                    "name": "",
                    "type": "bytes32"
                }
            ],
            "stateMutability": "view",
            "type": "function"
        },
        {
            "inputs": [],
            "name": "DEFAULT_ADMIN_ROLE",
            "outputs": [
                {
                    "internalType": "bytes32",
                    "name": "",
                    "type": "bytes32"
                }
            ],
            "stateMutability": "view",
            "type": "function"
        },
        {
            "inputs": [],
            "name": "MINTER_ROLE",
            "outputs": [
                {
                    "internalType": "bytes32",
                    "name": "",
                    "type": "bytes32"
                }
            ],
            "stateMutability": "view",
            "type": "function"
        },
        {
            "inputs": [],
            "name": "UPGRADER_ROLE",
            "outputs": [
                {
                    "internalType": "bytes32",
                    "name": "",
                    "type": "bytes32"
                }
            ],
            "stateMutability": "view",
            "type": "function"
        },
        {
            "inputs": [
                {
                    "internalType": "address",
                    "name": "to",
                    "type": "address"
                },
                {
                    "internalType": "uint256",
                    "name": "tokenId",
                    "type": "uint256"
                }
            ],
            "name": "approve",
            "outputs": [],
            "stateMutability": "nonpayable",
            "type": "function"
        },
        {
            "inputs": [
                {
                    "internalType": "address",
                    "name": "owner",
                    "type": "address"
                }
            ],
            "name": "balanceOf",
            "outputs": [
                {
                    "internalType": "uint256",
                    "name": "",
                    "type": "uint256"
                }
            ],
            "stateMutability": "view",
            "type": "function"
        },
        {
            "inputs": [
                {
                    "internalType": "uint256",
                    "name": "tokenId",
                    "type": "uint256"
                }
            ],
            "name": "burn",
            "outputs": [],
            "stateMutability": "nonpayable",
            "type": "function"
        },
        {
            "inputs": [
                {
                    "internalType": "bytes12",
                    "name": "id",
                    "type": "bytes12"
                }
            ],
            "name": "campaignExist",
            "outputs": [
                {
                    "internalType": "bool",
                    "name": "",
                    "type": "bool"
                }
            ],
            "stateMutability": "view",
            "type": "function"
        },
        {
            "inputs": [
                {
                    "internalType": "bytes12",
                    "name": "",
                    "type": "bytes12"
                }
            ],
            "name": "campaigns",
            "outputs": [
                {
                    "internalType": "bytes32",
                    "name": "merkleRoot",
                    "type": "bytes32"
                },
                {
                    "internalType": "uint64",
                    "name": "expireAt",
                    "type": "uint64"
                }
            ],
            "stateMutability": "view",
            "type": "function"
        },
        {
            "inputs": [],
            "name": "communityId",
            "outputs": [
                {
                    "internalType": "bytes12",
                    "name": "",
                    "type": "bytes12"
                }
            ],
            "stateMutability": "view",
            "type": "function"
        },
        {
            "inputs": [
                {
                    "internalType": "bytes12",
                    "name": "campaignId",
                    "type": "bytes12"
                },
                {
                    "internalType": "bytes32",
                    "name": "merkleRoot",
                    "type": "bytes32"
                },
                {
                    "internalType": "uint64",
                    "name": "expireAt",
                    "type": "uint64"
                }
            ],
            "name": "createCampaign",
            "outputs": [],
            "stateMutability": "nonpayable",
            "type": "function"
        },
        {
            "inputs": [],
            "name": "creator",
            "outputs": [
                {
                    "internalType": "address",
                    "name": "",
                    "type": "address"
                }
            ],
            "stateMutability": "view",
            "type": "function"
        },
        {
            "inputs": [],
            "name": "description",
            "outputs": [
                {
                    "internalType": "string",
                    "name": "",
                    "type": "string"
                }
            ],
            "stateMutability": "view",
            "type": "function"
        },
        {
            "inputs": [
                {
                    "internalType": "bytes12",
                    "name": "campaignId",
                    "type": "bytes12"
                }
            ],
            "name": "disableCampaign",
            "outputs": [],
            "stateMutability": "nonpayable",
            "type": "function"
        },
        {
            "inputs": [
                {
                    "internalType": "uint256",
                    "name": "tokenId",
                    "type": "uint256"
                }
            ],
            "name": "getApproved",
            "outputs": [
                {
                    "internalType": "address",
                    "name": "",
                    "type": "address"
                }
            ],
            "stateMutability": "view",
            "type": "function"
        },
        {
            "inputs": [
                {
                    "internalType": "bytes32",
                    "name": "role",
                    "type": "bytes32"
                }
            ],
            "name": "getRoleAdmin",
            "outputs": [
                {
                    "internalType": "bytes32",
                    "name": "",
                    "type": "bytes32"
                }
            ],
            "stateMutability": "view",
            "type": "function"
        },
        {
            "inputs": [
                {
                    "internalType": "bytes32",
                    "name": "role",
                    "type": "bytes32"
                },
                {
                    "internalType": "address",
                    "name": "account",
                    "type": "address"
                }
            ],
            "name": "grantRole",
            "outputs": [],
            "stateMutability": "nonpayable",
            "type": "function"
        },
        {
            "inputs": [
                {
                    "internalType": "bytes32",
                    "name": "role",
                    "type": "bytes32"
                },
                {
                    "internalType": "address",
                    "name": "account",
                    "type": "address"
                }
            ],
            "name": "hasRole",
            "outputs": [
                {
                    "internalType": "bool",
                    "name": "",
                    "type": "bool"
                }
            ],
            "stateMutability": "view",
            "type": "function"
        },
        {
            "inputs": [
                {
                    "internalType": "address",
                    "name": "claimIssuer",
                    "type": "address"
                },
                {
                    "internalType": "address",
                    "name": "_creator",
                    "type": "address"
                },
                {
                    "internalType": "bytes12",
                    "name": "_communityId",
                    "type": "bytes12"
                },
                {
                    "internalType": "string",
                    "name": "_name",
                    "type": "string"
                },
                {
                    "internalType": "string",
                    "name": "_symbol",
                    "type": "string"
                },
                {
                    "internalType": "string",
                    "name": "_description",
                    "type": "string"
                },
                {
                    "internalType": "bytes12",
                    "name": "campaignId",
                    "type": "bytes12"
                },
                {
                    "internalType": "bytes32",
                    "name": "merkleRoot",
                    "type": "bytes32"
                },
                {
                    "internalType": "uint64",
                    "name": "expireAt",
                    "type": "uint64"
                }
            ],
            "name": "initialize",
            "outputs": [],
            "stateMutability": "nonpayable",
            "type": "function"
        },
        {
            "inputs": [
                {
                    "internalType": "address",
                    "name": "owner",
                    "type": "address"
                },
                {
                    "internalType": "address",
                    "name": "operator",
                    "type": "address"
                }
            ],
            "name": "isApprovedForAll",
            "outputs": [
                {
                    "internalType": "bool",
                    "name": "",
                    "type": "bool"
                }
            ],
            "stateMutability": "view",
            "type": "function"
        },
        {
            "inputs": [
                {
                    "internalType": "bytes12",
                    "name": "id",
                    "type": "bytes12"
                }
            ],
            "name": "isCampaignActive",
            "outputs": [
                {
                    "internalType": "bool",
                    "name": "",
                    "type": "bool"
                }
            ],
            "stateMutability": "view",
            "type": "function"
        },
        {
            "inputs": [
                {
                    "internalType": "address",
                    "name": "forwarder",
                    "type": "address"
                }
            ],
            "name": "isTrustedForwarder",
            "outputs": [
                {
                    "internalType": "bool",
                    "name": "",
                    "type": "bool"
                }
            ],
            "stateMutability": "view",
            "type": "function"
        },
        {
            "inputs": [
                {
                    "internalType": "address",
                    "name": "recipient",
                    "type": "address"
                },
                {
                    "internalType": "string",
                    "name": "tokenUri",
                    "type": "string"
                }
            ],
            "name": "mintNFT",
            "outputs": [
                {
                    "internalType": "uint256",
                    "name": "",
                    "type": "uint256"
                }
            ],
            "stateMutability": "nonpayable",
            "type": "function"
        },
        {
            "inputs": [
                {
                    "internalType": "bytes12",
                    "name": "campaignId",
                    "type": "bytes12"
                },
                {
                    "internalType": "bytes32[]",
                    "name": "proof",
                    "type": "bytes32[]"
                },
                {
                    "internalType": "bytes",
                    "name": "sign",
                    "type": "bytes"
                },
                {
                    "internalType": "address",
                    "name": "recipient",
                    "type": "address"
                },
                {
                    "internalType": "string",
                    "name": "tokenUri",
                    "type": "string"
                }
            ],
            "name": "mintNFTCampaign",
            "outputs": [
                {
                    "internalType": "uint256",
                    "name": "",
                    "type": "uint256"
                }
            ],
            "stateMutability": "nonpayable",
            "type": "function"
        },
        {
            "inputs": [],
            "name": "name",
            "outputs": [
                {
                    "internalType": "string",
                    "name": "",
                    "type": "string"
                }
            ],
            "stateMutability": "view",
            "type": "function"
        },
        {
            "inputs": [
                {
                    "internalType": "uint256",
                    "name": "tokenId",
                    "type": "uint256"
                }
            ],
            "name": "ownerOf",
            "outputs": [
                {
                    "internalType": "address",
                    "name": "",
                    "type": "address"
                }
            ],
            "stateMutability": "view",
            "type": "function"
        },
        {
            "inputs": [],
            "name": "proxiableUUID",
            "outputs": [
                {
                    "internalType": "bytes32",
                    "name": "",
                    "type": "bytes32"
                }
            ],
            "stateMutability": "view",
            "type": "function"
        },
        {
            "inputs": [
                {
                    "internalType": "bytes32",
                    "name": "role",
                    "type": "bytes32"
                },
                {
                    "internalType": "address",
                    "name": "account",
                    "type": "address"
                }
            ],
            "name": "renounceRole",
            "outputs": [],
            "stateMutability": "nonpayable",
            "type": "function"
        },
        {
            "inputs": [
                {
                    "internalType": "bytes32",
                    "name": "role",
                    "type": "bytes32"
                },
                {
                    "internalType": "address",
                    "name": "account",
                    "type": "address"
                }
            ],
            "name": "revokeRole",
            "outputs": [],
            "stateMutability": "nonpayable",
            "type": "function"
        },
        {
            "inputs": [
                {
                    "internalType": "address",
                    "name": "from",
                    "type": "address"
                },
                {
                    "internalType": "address",
                    "name": "to",
                    "type": "address"
                },
                {
                    "internalType": "uint256",
                    "name": "tokenId",
                    "type": "uint256"
                }
            ],
            "name": "safeTransferFrom",
            "outputs": [],
            "stateMutability": "nonpayable",
            "type": "function"
        },
        {
            "inputs": [
                {
                    "internalType": "address",
                    "name": "from",
                    "type": "address"
                },
                {
                    "internalType": "address",
                    "name": "to",
                    "type": "address"
                },
                {
                    "internalType": "uint256",
                    "name": "tokenId",
                    "type": "uint256"
                },
                {
                    "internalType": "bytes",
                    "name": "data",
                    "type": "bytes"
                }
            ],
            "name": "safeTransferFrom",
            "outputs": [],
            "stateMutability": "nonpayable",
            "type": "function"
        },
        {
            "inputs": [
                {
                    "internalType": "address",
                    "name": "operator",
                    "type": "address"
                },
                {
                    "internalType": "bool",
                    "name": "approved",
                    "type": "bool"
                }
            ],
            "name": "setApprovalForAll",
            "outputs": [],
            "stateMutability": "nonpayable",
            "type": "function"
        },
        {
            "inputs": [
                {
                    "internalType": "bytes4",
                    "name": "interfaceId",
                    "type": "bytes4"
                }
            ],
            "name": "supportsInterface",
            "outputs": [
                {
                    "internalType": "bool",
                    "name": "",
                    "type": "bool"
                }
            ],
            "stateMutability": "view",
            "type": "function"
        },
        {
            "inputs": [],
            "name": "symbol",
            "outputs": [
                {
                    "internalType": "string",
                    "name": "",
                    "type": "string"
                }
            ],
            "stateMutability": "view",
            "type": "function"
        },
        {
            "inputs": [
                {
                    "internalType": "uint256",
                    "name": "tokenId",
                    "type": "uint256"
                }
            ],
            "name": "tokenURI",
            "outputs": [
                {
                    "internalType": "string",
                    "name": "",
                    "type": "string"
                }
            ],
            "stateMutability": "view",
            "type": "function"
        },
        {
            "inputs": [
                {
                    "internalType": "address",
                    "name": "from",
                    "type": "address"
                },
                {
                    "internalType": "address",
                    "name": "to",
                    "type": "address"
                },
                {
                    "internalType": "uint256",
                    "name": "tokenId",
                    "type": "uint256"
                }
            ],
            "name": "transferFrom",
            "outputs": [],
            "stateMutability": "nonpayable",
            "type": "function"
        },
        {
            "inputs": [
                {
                    "internalType": "address",
                    "name": "newImplementation",
                    "type": "address"
                }
            ],
            "name": "upgradeTo",
            "outputs": [],
            "stateMutability": "nonpayable",
            "type": "function"
        },
        {
            "inputs": [
                {
                    "internalType": "address",
                    "name": "newImplementation",
                    "type": "address"
                },
                {
                    "internalType": "bytes",
                    "name": "data",
                    "type": "bytes"
                }
            ],
            "name": "upgradeToAndCall",
            "outputs": [],
            "stateMutability": "payable",
            "type": "function"
        }
    ],
    "bytecode": "60c0604052306080523480156200001557600080fd5b5060405162003a9038038062003a90833981016040819052620000389162000118565b6001600160a01b03811660a0526200004f62000056565b506200014a565b600054610100900460ff1615620000c35760405162461bcd60e51b815260206004820152602760248201527f496e697469616c697a61626c653a20636f6e747261637420697320696e697469604482015266616c697a696e6760c81b606482015260840160405180910390fd5b60005460ff908116101562000116576000805460ff191660ff9081179091556040519081527f7f26b83ff96e1f2b6a682f133852f6798a09c465da95921460cefb38474024989060200160405180910390a15b565b6000602082840312156200012b57600080fd5b81516001600160a01b03811681146200014357600080fd5b9392505050565b60805160a0516138fd620001936000396000818161049f0152612015015260008181610d9701528181610dd701528181610ee701528181610f270152610fb601526138fd6000f3fe6080604052600436106102255760003560e01c80636122ad0611610123578063a044e70f116100ab578063d53913931161006f578063d5391393146106f1578063d547741f14610713578063e985e9c514610733578063eacabe141461077c578063f72c0d8b1461079c57600080fd5b8063a044e70f14610648578063a217fddf1461067c578063a22cb46514610691578063b88d4fde146106b1578063c87b56dd146106d157600080fd5b80637284e416116100f25780637284e4161461056f5780637f50861a14610584578063886fa2e9146105b857806391d148541461061357806395d89b411461063357600080fd5b80636122ad06146104ef5780636352211e1461050f5780637082a1f61461052f57806370a082311461054f57600080fd5b80632f2ff15d116101b15780634f1ef286116101755780634f1ef2861461043a57806352d1902d1461044d57806354316b6f14610462578063572b6c051461048257806358dbbbf7146104cf57600080fd5b80632f2ff15d1461039a57806336568abe146103ba5780633659cfe6146103da57806342842e0e146103fa57806342966c681461041a57600080fd5b8063095ea7b3116101f8578063095ea7b3146102da57806323b872dd146102fc578063248a9ca31461031c578063253f077b1461035a5780632d06dbaa1461037a57600080fd5b806301ffc9a71461022a57806302d05d3f1461025f57806306fdde0314610298578063081812fc146102ba575b600080fd5b34801561023657600080fd5b5061024a610245366004612da1565b6107d0565b60405190151581526020015b60405180910390f35b34801561026b57600080fd5b5061019354610280906001600160a01b031681565b6040516001600160a01b039091168152602001610256565b3480156102a457600080fd5b506102ad6107e1565b6040516102569190612e0e565b3480156102c657600080fd5b506102806102d5366004612e21565b610873565b3480156102e657600080fd5b506102fa6102f5366004612e56565b61089a565b005b34801561030857600080fd5b506102fa610317366004612e80565b6109c6565b34801561032857600080fd5b5061034c610337366004612e21565b600090815260c9602052604090206001015490565b604051908152602001610256565b34801561036657600080fd5b5061024a610375366004612ed4565b6109fe565b34801561038657600080fd5b506102fa610395366004612fbb565b610a6b565b3480156103a657600080fd5b506102fa6103b53660046130a0565b610cda565b3480156103c657600080fd5b506102fa6103d53660046130a0565b610cff565b3480156103e657600080fd5b506102fa6103f53660046130cc565b610d8d565b34801561040657600080fd5b506102fa610415366004612e80565b610e6c565b34801561042657600080fd5b506102fa610435366004612e21565b610e87565b6102fa6104483660046130e7565b610edd565b34801561045957600080fd5b5061034c610fa9565b34801561046e57600080fd5b5061034c61047d366004613134565b61105c565b34801561048e57600080fd5b5061024a61049d3660046130cc565b7f00000000000000000000000000000000000000000000000000000000000000006001600160a01b0390811691161490565b3480156104db57600080fd5b506102fa6104ea366004613243565b61114a565b3480156104fb57600080fd5b5061024a61050a366004612ed4565b611255565b34801561051b57600080fd5b5061028061052a366004612e21565b61128c565b34801561053b57600080fd5b506102fa61054a366004612ed4565b6112ec565b34801561055b57600080fd5b5061034c61056a3660046130cc565b6113c9565b34801561057b57600080fd5b506102ad61144f565b34801561059057600080fd5b506101955461059f9060a01b81565b6040516001600160a01b03199091168152602001610256565b3480156105c457600080fd5b506105f66105d3366004612ed4565b61019260205260009081526040902080546001909101546001600160401b031682565b604080519283526001600160401b03909116602083015201610256565b34801561061f57600080fd5b5061024a61062e3660046130a0565b6114de565b34801561063f57600080fd5b506102ad611509565b34801561065457600080fd5b5061034c7fdf6bc58af35302f8541fb5d0da6c4472be7fc3a416bf34042d13743ac0a5091581565b34801561068857600080fd5b5061034c600081565b34801561069d57600080fd5b506102fa6106ac36600461327f565b611518565b3480156106bd57600080fd5b506102fa6106cc3660046132bb565b61152a565b3480156106dd57600080fd5b506102ad6106ec366004612e21565b611569565b3480156106fd57600080fd5b5061034c6000805160206138a883398151915281565b34801561071f57600080fd5b506102fa61072e3660046130a0565b611574565b34801561073f57600080fd5b5061024a61074e366004613322565b6001600160a01b039182166000908152606a6020908152604080832093909416825291909152205460ff1690565b34801561078857600080fd5b5061034c6107973660046130e7565b611599565b3480156107a857600080fd5b5061034c7f189ab7a9244df0848122154315af71fe140f3db0fe014031783b0946b8c9d2e381565b60006107db826115e2565b92915050565b6060606580546107f09061334c565b80601f016020809104026020016040519081016040528092919081815260200182805461081c9061334c565b80156108695780601f1061083e57610100808354040283529160200191610869565b820191906000526020600020905b81548152906001019060200180831161084c57829003601f168201915b5050505050905090565b600061087e82611607565b506000908152606960205260409020546001600160a01b031690565b60006108a58261128c565b9050806001600160a01b0316836001600160a01b0316036109175760405162461bcd60e51b815260206004820152602160248201527f4552433732313a20617070726f76616c20746f2063757272656e74206f776e656044820152603960f91b60648201526084015b60405180910390fd5b806001600160a01b0316610929611666565b6001600160a01b0316148061094557506109458161074e611666565b6109b75760405162461bcd60e51b815260206004820152603d60248201527f4552433732313a20617070726f76652063616c6c6572206973206e6f7420746f60448201527f6b656e206f776e6572206f7220617070726f76656420666f7220616c6c000000606482015260840161090e565b6109c18383611675565b505050565b6109d76109d1611666565b826116e3565b6109f35760405162461bcd60e51b815260040161090e90613386565b6109c1838383611762565b6001600160a01b0319811660009081526101926020526040812060010154426001600160401b039091161180156107db5750506001600160a01b03191660009081526101926020908152604080832060018085526002909101909252909120546001600160a01b03161490565b600054610100900460ff1615808015610a8b5750600054600160ff909116105b80610aa55750303b158015610aa5575060005460ff166001145b610b085760405162461bcd60e51b815260206004820152602e60248201527f496e697469616c697a61626c653a20636f6e747261637420697320616c72656160448201526d191e481a5b9a5d1a585b1a5e995960921b606482015260840161090e565b6000805460ff191660011790558015610b2b576000805461ff0019166101001790555b610b3587876118d3565b610b3d611904565b610b45611904565b610b4d611904565b610b5860008a61192d565b610b827f189ab7a9244df0848122154315af71fe140f3db0fe014031783b0946b8c9d2e38a61192d565b610b9a6000805160206138a88339815191528a61192d565b610bb26000805160206138a88339815191523361192d565b610bdc7fdf6bc58af35302f8541fb5d0da6c4472be7fc3a416bf34042d13743ac0a509158a61192d565b610c067fdf6bc58af35302f8541fb5d0da6c4472be7fc3a416bf34042d13743ac0a509158b61192d565b61019380546001600160a01b0319166001600160a01b038b16179055610194610c2f8682613421565b5061019580546bffffffffffffffffffffffff191660a08a901c1790556001600160a01b0319841615801590610c6457508215155b8015610c7857506001600160401b03821615155b15610c8857610c8884848461114a565b8015610cce576000805461ff0019169055604051600181527f7f26b83ff96e1f2b6a682f133852f6798a09c465da95921460cefb38474024989060200160405180910390a15b50505050505050505050565b600082815260c96020526040902060010154610cf581611937565b6109c18383611948565b610d07611666565b6001600160a01b0316816001600160a01b031614610d7f5760405162461bcd60e51b815260206004820152602f60248201527f416363657373436f6e74726f6c3a2063616e206f6e6c792072656e6f756e636560448201526e103937b632b9903337b91039b2b63360891b606482015260840161090e565b610d8982826119cf565b5050565b6001600160a01b037f0000000000000000000000000000000000000000000000000000000000000000163003610dd55760405162461bcd60e51b815260040161090e906134e0565b7f00000000000000000000000000000000000000000000000000000000000000006001600160a01b0316610e1e600080516020613861833981519152546001600160a01b031690565b6001600160a01b031614610e445760405162461bcd60e51b815260040161090e9061352c565b610e4d81611a54565b60408051600080825260208201909252610e6991839190611a7e565b50565b6109c18383836040518060200160405280600081525061152a565b33610e918261128c565b6001600160a01b031614610ed45760405162461bcd60e51b815260206004820152600a6024820152693737ba1037bbb732b91760b11b604482015260640161090e565b610e6981611be9565b6001600160a01b037f0000000000000000000000000000000000000000000000000000000000000000163003610f255760405162461bcd60e51b815260040161090e906134e0565b7f00000000000000000000000000000000000000000000000000000000000000006001600160a01b0316610f6e600080516020613861833981519152546001600160a01b031690565b6001600160a01b031614610f945760405162461bcd60e51b815260040161090e9061352c565b610f9d82611a54565b610d8982826001611a7e565b6000306001600160a01b037f000000000000000000000000000000000000000000000000000000000000000016146110495760405162461bcd60e51b815260206004820152603860248201527f555550535570677261646561626c653a206d757374206e6f742062652063616c60448201527f6c6564207468726f7567682064656c656761746563616c6c0000000000000000606482015260840161090e565b5060008051602061386183398151915290565b6000611067866109fe565b6110ac5760405162461bcd60e51b815260206004820152601660248201527563616d706169676e206973206e6f742061637469766560501b604482015260640161090e565b6000806110ba888888611bf2565b91509150806110f95760405162461bcd60e51b815260206004820152600b60248201526a18d85b9b9bdd081b5a5b9d60aa1b604482015260640161090e565b6001600160a01b0319888116600090815261019260209081526040808320868452600201909152902080549091166001600160a01b03871617905561113e8585611d45565b98975050505050505050565b6111646000805160206138a883398151915261062e611666565b6111805760405162461bcd60e51b815260040161090e90613578565b816111bc5760405162461bcd60e51b815260206004820152600c60248201526b1a5b9d985b1a59081c9bdbdd60a21b604482015260640161090e565b42816001600160401b0316116112085760405162461bcd60e51b81526020600482015260116024820152701a5b9d985b1a5908195e1c1a5c9948185d607a1b604482015260640161090e565b611213836001611d78565b6001600160a01b031992909216600090815261019260205260409020908155600101805467ffffffffffffffff19166001600160401b03909216919091179055565b6001600160a01b031916600090815261019260209081526040808320600184526002019091529020546001600160a01b0316151590565b6000818152606760205260408120546001600160a01b0316806107db5760405162461bcd60e51b8152602060048201526018602482015277115490cdcc8c4e881a5b9d985b1a59081d1bdad95b88125160421b604482015260640161090e565b6113066000805160206138a883398151915261062e611666565b6113225760405162461bcd60e51b815260040161090e90613578565b61132b81611255565b6113705760405162461bcd60e51b815260206004820152601660248201527518d85b5c185a59db88191bd95cdb89dd08195e1a5cdd60521b604482015260640161090e565b611379816109fe565b6113be5760405162461bcd60e51b815260206004820152601660248201527563616d706169676e206973206e6f742061637469766560501b604482015260640161090e565b610e69816002611d78565b60006001600160a01b0382166114335760405162461bcd60e51b815260206004820152602960248201527f4552433732313a2061646472657373207a65726f206973206e6f7420612076616044820152683634b21037bbb732b960b91b606482015260840161090e565b506001600160a01b031660009081526068602052604090205490565b610194805461145d9061334c565b80601f01602080910402602001604051908101604052809291908181526020018280546114899061334c565b80156114d65780601f106114ab576101008083540402835291602001916114d6565b820191906000526020600020905b8154815290600101906020018083116114b957829003601f168201915b505050505081565b600091825260c9602090815260408084206001600160a01b0393909316845291905290205460ff1690565b6060606680546107f09061334c565b610d89611523611666565b8383611db8565b61153b611535611666565b836116e3565b6115575760405162461bcd60e51b815260040161090e90613386565b61156384848484611e86565b50505050565b60606107db82611eb9565b600082815260c9602052604090206001015461158f81611937565b6109c183836119cf565b60006115b56000805160206138a883398151915261062e611666565b6115d15760405162461bcd60e51b815260040161090e90613578565b6115db8383611d45565b9392505050565b60006001600160e01b03198216637965db0b60e01b14806107db57506107db82611fc1565b6000818152606760205260409020546001600160a01b0316610e695760405162461bcd60e51b8152602060048201526018602482015277115490cdcc8c4e881a5b9d985b1a59081d1bdad95b88125160421b604482015260640161090e565b6000611670612011565b905090565b600081815260696020526040902080546001600160a01b0319166001600160a01b03841690811790915581906116aa8261128c565b6001600160a01b03167f8c5be1e5ebec7d5bd14f71427d1e84f3dd0314c0f7b2291e5b200ac8c7c3b92560405160405180910390a45050565b6000806116ef8361128c565b9050806001600160a01b0316846001600160a01b0316148061173657506001600160a01b038082166000908152606a602090815260408083209388168352929052205460ff165b8061175a5750836001600160a01b031661174f84610873565b6001600160a01b0316145b949350505050565b826001600160a01b03166117758261128c565b6001600160a01b03161461179b5760405162461bcd60e51b815260040161090e906135af565b6001600160a01b0382166117fd5760405162461bcd60e51b8152602060048201526024808201527f4552433732313a207472616e7366657220746f20746865207a65726f206164646044820152637265737360e01b606482015260840161090e565b61180a8383836001612055565b826001600160a01b031661181d8261128c565b6001600160a01b0316146118435760405162461bcd60e51b815260040161090e906135af565b600081815260696020908152604080832080546001600160a01b03199081169091556001600160a01b0387811680865260688552838620805460001901905590871680865283862080546001019055868652606790945282852080549092168417909155905184937fddf252ad1be2c89b69c2b068fc378daa952ba7f163c4a11628f55a4df523b3ef91a4505050565b600054610100900460ff166118fa5760405162461bcd60e51b815260040161090e906135f4565b610d89828261210a565b600054610100900460ff1661192b5760405162461bcd60e51b815260040161090e906135f4565b565b610d898282611948565b610e6981611943611666565b61214a565b61195282826114de565b610d8957600082815260c9602090815260408083206001600160a01b03851684529091529020805460ff1916600117905561198b611666565b6001600160a01b0316816001600160a01b0316837f2f8788117e7eff1d82e926ec794901d17c78024a50270940304540a733656f0d60405160405180910390a45050565b6119d982826114de565b15610d8957600082815260c9602090815260408083206001600160a01b03851684529091529020805460ff19169055611a10611666565b6001600160a01b0316816001600160a01b0316837ff6391f5c32d9c69d2a47ea670b442974b53935d1edc7fd64eb21e047a839171b60405160405180910390a45050565b7f189ab7a9244df0848122154315af71fe140f3db0fe014031783b0946b8c9d2e3610d8981611937565b7f4910fdfa16fed3260ed0e7147f7cc6da11a60208b5b9406d12a635614ffd91435460ff1615611ab1576109c1836121a3565b826001600160a01b03166352d1902d6040518163ffffffff1660e01b8152600401602060405180830381865afa925050508015611b0b575060408051601f3d908101601f19168201909252611b089181019061363f565b60015b611b6e5760405162461bcd60e51b815260206004820152602e60248201527f45524331393637557067726164653a206e657720696d706c656d656e7461746960448201526d6f6e206973206e6f74205555505360901b606482015260840161090e565b6000805160206138618339815191528114611bdd5760405162461bcd60e51b815260206004820152602960248201527f45524331393637557067726164653a20756e737570706f727465642070726f786044820152681a58589b195555525160ba1b606482015260840161090e565b506109c183838361223f565b610e6981612264565b604080516001600160a01b031985166020808301919091528251600c818403018152602c830184528051908201207f19457468657265756d205369676e6564204d6573736167653a0a333200000000604c84015260688084019190915283518084039091018152608890920190925280519101206000908190600080611c7883876122a4565b90925090506000816004811115611c9157611c91613658565b14611ca6575060009350839250611d3d915050565b604080516bffffffffffffffffffffffff19606085901b1660208201526001600160a01b03198a1660348201526000910160408051601f1981840301815291815281516020928301206001600160a01b03198c166000908152610192845282812082825260020190935291205490915081906001600160a01b0316158015611d345750611d348a8a846122e9565b95509550505050505b935093915050565b6000611d5661019180546001019055565b6000611d626101915490565b9050611d6e8482612318565b6115db81846124b1565b6001600160a01b031991821660009081526101926020908152604080832060018452600201909152902080546001600160a01b0390921691909216179055565b816001600160a01b0316836001600160a01b031603611e195760405162461bcd60e51b815260206004820152601960248201527f4552433732313a20617070726f766520746f2063616c6c657200000000000000604482015260640161090e565b6001600160a01b038381166000818152606a6020908152604080832094871680845294825291829020805460ff191686151590811790915591519182527f17307eab39ab6107e8899845ad3d59bd9653f200f220920489ca2b5937696c31910160405180910390a3505050565b611e91848484611762565b611e9d84848484612544565b6115635760405162461bcd60e51b815260040161090e9061366e565b6060611ec482611607565b60008281526097602052604081208054611edd9061334c565b80601f0160208091040260200160405190810160405280929190818152602001828054611f099061334c565b8015611f565780601f10611f2b57610100808354040283529160200191611f56565b820191906000526020600020905b815481529060010190602001808311611f3957829003601f168201915b505050505090506000611f7460408051602081019091526000815290565b90508051600003611f86575092915050565b815115611fb8578082604051602001611fa09291906136c0565b60405160208183030381529060405292505050919050565b61175a8461264c565b60006001600160e01b031982166380ac58cd60e01b1480611ff257506001600160e01b03198216635b5e139f60e01b145b806107db57506301ffc9a760e01b6001600160e01b03198316146107db565b60007f00000000000000000000000000000000000000000000000000000000000000006001600160a01b03163303612050575060131936013560601c90565b503390565b6001600160a01b038416158061207257506001600160a01b038316155b6115635760405162461bcd60e51b815260206004820152605b60248201527f54686973206120536f756c626f756e6420746f6b656e2e2049742063616e6e6f60448201527f74206265207472616e736665727265642e2049742063616e206f6e6c7920626560648201527f206275726e65642062792074686520746f6b656e206f776e65722e0000000000608482015260a40161090e565b600054610100900460ff166121315760405162461bcd60e51b815260040161090e906135f4565b606561213d8382613421565b5060666109c18282613421565b61215482826114de565b610d8957612161816126bf565b61216c8360206126d1565b60405160200161217d9291906136ef565b60408051601f198184030181529082905262461bcd60e51b825261090e91600401612e0e565b6001600160a01b0381163b6122105760405162461bcd60e51b815260206004820152602d60248201527f455243313936373a206e657720696d706c656d656e746174696f6e206973206e60448201526c1bdd08184818dbdb9d1c9858dd609a1b606482015260840161090e565b60008051602061386183398151915280546001600160a01b0319166001600160a01b0392909216919091179055565b6122488361286c565b6000825111806122555750805b156109c15761156383836128ac565b61226d81612997565b600081815260976020526040902080546122869061334c565b159050610e69576000818152609760205260408120610e6991612d3d565b60008082516041036122da5760208301516040840151606085015160001a6122ce87828585612a3a565b945094505050506122e2565b506000905060025b9250929050565b6001600160a01b031983166000908152610192602052604081205461230f848285612afe565b95945050505050565b6001600160a01b03821661236e5760405162461bcd60e51b815260206004820181905260248201527f4552433732313a206d696e7420746f20746865207a65726f2061646472657373604482015260640161090e565b6000818152606760205260409020546001600160a01b0316156123d35760405162461bcd60e51b815260206004820152601c60248201527f4552433732313a20746f6b656e20616c7265616479206d696e74656400000000604482015260640161090e565b6123e1600083836001612055565b6000818152606760205260409020546001600160a01b0316156124465760405162461bcd60e51b815260206004820152601c60248201527f4552433732313a20746f6b656e20616c7265616479206d696e74656400000000604482015260640161090e565b6001600160a01b038216600081815260686020908152604080832080546001019055848352606790915280822080546001600160a01b0319168417905551839291907fddf252ad1be2c89b69c2b068fc378daa952ba7f163c4a11628f55a4df523b3ef908290a45050565b6000828152606760205260409020546001600160a01b031661252c5760405162461bcd60e51b815260206004820152602e60248201527f45524337323155524953746f726167653a2055524920736574206f66206e6f6e60448201526d32bc34b9ba32b73a103a37b5b2b760911b606482015260840161090e565b60008281526097602052604090206109c18282613421565b60006001600160a01b0384163b1561264157836001600160a01b031663150b7a0261256d611666565b8786866040518563ffffffff1660e01b815260040161258f9493929190613764565b6020604051808303816000875af19250505080156125ca575060408051601f3d908101601f191682019092526125c7918101906137a1565b60015b612627573d8080156125f8576040519150601f19603f3d011682016040523d82523d6000602084013e6125fd565b606091505b50805160000361261f5760405162461bcd60e51b815260040161090e9061366e565b805181602001fd5b6001600160e01b031916630a85bd0160e11b14905061175a565b506001949350505050565b606061265782611607565b600061266e60408051602081019091526000815290565b9050600081511161268e57604051806020016040528060008152506115db565b8061269884612b14565b6040516020016126a99291906136c0565b6040516020818303038152906040529392505050565b60606107db6001600160a01b03831660145b606060006126e08360026137d4565b6126eb9060026137eb565b6001600160401b0381111561270257612702612eef565b6040519080825280601f01601f19166020018201604052801561272c576020820181803683370190505b509050600360fc1b81600081518110612747576127476137fe565b60200101906001600160f81b031916908160001a905350600f60fb1b81600181518110612776576127766137fe565b60200101906001600160f81b031916908160001a905350600061279a8460026137d4565b6127a59060016137eb565b90505b600181111561281d576f181899199a1a9b1b9c1cb0b131b232b360811b85600f16601081106127d9576127d96137fe565b1a60f81b8282815181106127ef576127ef6137fe565b60200101906001600160f81b031916908160001a90535060049490941c9361281681613814565b90506127a8565b5083156115db5760405162461bcd60e51b815260206004820181905260248201527f537472696e67733a20686578206c656e67746820696e73756666696369656e74604482015260640161090e565b612875816121a3565b6040516001600160a01b038216907fbc7cd75a20ee27fd9adebab32041f755214dbc6bffa90cc0225b39da2e5c2d3b90600090a250565b60606001600160a01b0383163b6129145760405162461bcd60e51b815260206004820152602660248201527f416464726573733a2064656c65676174652063616c6c20746f206e6f6e2d636f6044820152651b9d1c9858dd60d21b606482015260840161090e565b600080846001600160a01b03168460405161292f919061382b565b600060405180830381855af49150503d806000811461296a576040519150601f19603f3d011682016040523d82523d6000602084013e61296f565b606091505b509150915061230f828260405180606001604052806027815260200161388160279139612ba6565b60006129a28261128c565b90506129b2816000846001612055565b6129bb8261128c565b600083815260696020908152604080832080546001600160a01b03199081169091556001600160a01b0385168085526068845282852080546000190190558785526067909352818420805490911690555192935084927fddf252ad1be2c89b69c2b068fc378daa952ba7f163c4a11628f55a4df523b3ef908390a45050565b6000807f7fffffffffffffffffffffffffffffff5d576e7357a4501ddfe92f46681b20a0831115612a715750600090506003612af5565b6040805160008082526020820180845289905260ff881692820192909252606081018690526080810185905260019060a0016020604051602081039080840390855afa158015612ac5573d6000803e3d6000fd5b5050604051601f1901519150506001600160a01b038116612aee57600060019250925050612af5565b9150600090505b94509492505050565b600082612b0b8584612bbf565b14949350505050565b60606000612b2183612c0c565b60010190506000816001600160401b03811115612b4057612b40612eef565b6040519080825280601f01601f191660200182016040528015612b6a576020820181803683370190505b5090508181016020015b600019016f181899199a1a9b1b9c1cb0b131b232b360811b600a86061a8153600a8504945084612b7457509392505050565b60608315612bb55750816115db565b6115db8383612ce4565b600081815b8451811015612c0457612bf082868381518110612be357612be36137fe565b6020026020010151612d0e565b915080612bfc81613847565b915050612bc4565b509392505050565b60008072184f03e93ff9f4daa797ed6e38ed64bf6a1f0160401b8310612c4b5772184f03e93ff9f4daa797ed6e38ed64bf6a1f0160401b830492506040015b6d04ee2d6d415b85acef81000000008310612c77576d04ee2d6d415b85acef8100000000830492506020015b662386f26fc100008310612c9557662386f26fc10000830492506010015b6305f5e1008310612cad576305f5e100830492506008015b6127108310612cc157612710830492506004015b60648310612cd3576064830492506002015b600a83106107db5760010192915050565b815115612cf45781518083602001fd5b8060405162461bcd60e51b815260040161090e9190612e0e565b6000818310612d2a5760008281526020849052604090206115db565b60008381526020839052604090206115db565b508054612d499061334c565b6000825580601f10612d59575050565b601f016020900490600052602060002090810190610e6991905b80821115612d875760008155600101612d73565b5090565b6001600160e01b031981168114610e6957600080fd5b600060208284031215612db357600080fd5b81356115db81612d8b565b60005b83811015612dd9578181015183820152602001612dc1565b50506000910152565b60008151808452612dfa816020860160208601612dbe565b601f01601f19169290920160200192915050565b6020815260006115db6020830184612de2565b600060208284031215612e3357600080fd5b5035919050565b80356001600160a01b0381168114612e5157600080fd5b919050565b60008060408385031215612e6957600080fd5b612e7283612e3a565b946020939093013593505050565b600080600060608486031215612e9557600080fd5b612e9e84612e3a565b9250612eac60208501612e3a565b9150604084013590509250925092565b80356001600160a01b031981168114612e5157600080fd5b600060208284031215612ee657600080fd5b6115db82612ebc565b634e487b7160e01b600052604160045260246000fd5b604051601f8201601f191681016001600160401b0381118282101715612f2d57612f2d612eef565b604052919050565b600082601f830112612f4657600080fd5b81356001600160401b03811115612f5f57612f5f612eef565b612f72601f8201601f1916602001612f05565b818152846020838601011115612f8757600080fd5b816020850160208301376000918101602001919091529392505050565b80356001600160401b0381168114612e5157600080fd5b60008060008060008060008060006101208a8c031215612fda57600080fd5b612fe38a612e3a565b9850612ff160208b01612e3a565b9750612fff60408b01612ebc565b965060608a01356001600160401b038082111561301b57600080fd5b6130278d838e01612f35565b975060808c013591508082111561303d57600080fd5b6130498d838e01612f35565b965060a08c013591508082111561305f57600080fd5b5061306c8c828d01612f35565b94505061307b60c08b01612ebc565b925060e08a013591506130916101008b01612fa4565b90509295985092959850929598565b600080604083850312156130b357600080fd5b823591506130c360208401612e3a565b90509250929050565b6000602082840312156130de57600080fd5b6115db82612e3a565b600080604083850312156130fa57600080fd5b61310383612e3a565b915060208301356001600160401b0381111561311e57600080fd5b61312a85828601612f35565b9150509250929050565b600080600080600060a0868803121561314c57600080fd5b61315586612ebc565b94506020808701356001600160401b038082111561317257600080fd5b818901915089601f83011261318657600080fd5b81358181111561319857613198612eef565b8060051b6131a7858201612f05565b918252838101850191858101908d8411156131c157600080fd5b948601945b838610156131df578535825294860194908601906131c6565b995050505060408901359250808311156131f857600080fd5b6132048a848b01612f35565b955061321260608a01612e3a565b9450608089013592508083111561322857600080fd5b505061323688828901612f35565b9150509295509295909350565b60008060006060848603121561325857600080fd5b61326184612ebc565b92506020840135915061327660408501612fa4565b90509250925092565b6000806040838503121561329257600080fd5b61329b83612e3a565b9150602083013580151581146132b057600080fd5b809150509250929050565b600080600080608085870312156132d157600080fd5b6132da85612e3a565b93506132e860208601612e3a565b92506040850135915060608501356001600160401b0381111561330a57600080fd5b61331687828801612f35565b91505092959194509250565b6000806040838503121561333557600080fd5b61333e83612e3a565b91506130c360208401612e3a565b600181811c9082168061336057607f821691505b60208210810361338057634e487b7160e01b600052602260045260246000fd5b50919050565b6020808252602d908201527f4552433732313a2063616c6c6572206973206e6f7420746f6b656e206f776e6560408201526c1c881bdc88185c1c1c9bdd9959609a1b606082015260800190565b601f8211156109c157600081815260208120601f850160051c810160208610156133fa5750805b601f850160051c820191505b8181101561341957828155600101613406565b505050505050565b81516001600160401b0381111561343a5761343a612eef565b61344e81613448845461334c565b846133d3565b602080601f831160018114613483576000841561346b5750858301515b600019600386901b1c1916600185901b178555613419565b600085815260208120601f198616915b828110156134b257888601518255948401946001909101908401613493565b50858210156134d05787850151600019600388901b60f8161c191681555b5050505050600190811b01905550565b6020808252602c908201527f46756e6374696f6e206d7573742062652063616c6c6564207468726f7567682060408201526b19195b1959d85d1958d85b1b60a21b606082015260800190565b6020808252602c908201527f46756e6374696f6e206d7573742062652063616c6c6564207468726f7567682060408201526b6163746976652070726f787960a01b606082015260800190565b60208082526019908201527f444f45535f4e4f545f484156455f4d494e5445525f524f4c4500000000000000604082015260600190565b60208082526025908201527f4552433732313a207472616e736665722066726f6d20696e636f72726563742060408201526437bbb732b960d91b606082015260800190565b6020808252602b908201527f496e697469616c697a61626c653a20636f6e7472616374206973206e6f74206960408201526a6e697469616c697a696e6760a81b606082015260800190565b60006020828403121561365157600080fd5b5051919050565b634e487b7160e01b600052602160045260246000fd5b60208082526032908201527f4552433732313a207472616e7366657220746f206e6f6e20455243373231526560408201527131b2b4bb32b91034b6b83632b6b2b73a32b960711b606082015260800190565b600083516136d2818460208801612dbe565b8351908301906136e6818360208801612dbe565b01949350505050565b7f416363657373436f6e74726f6c3a206163636f756e7420000000000000000000815260008351613727816017850160208801612dbe565b7001034b99036b4b9b9b4b733903937b6329607d1b6017918401918201528351613758816028840160208801612dbe565b01602801949350505050565b6001600160a01b038581168252841660208201526040810183905260806060820181905260009061379790830184612de2565b9695505050505050565b6000602082840312156137b357600080fd5b81516115db81612d8b565b634e487b7160e01b600052601160045260246000fd5b80820281158282048414176107db576107db6137be565b808201808211156107db576107db6137be565b634e487b7160e01b600052603260045260246000fd5b600081613823576138236137be565b506000190190565b6000825161383d818460208701612dbe565b9190910192915050565b600060018201613859576138596137be565b506001019056fe360894a13ba1a3210667c828492db98dca3e2076cc3735a920a3ca505d382bbc416464726573733a206c6f772d6c6576656c2064656c65676174652063616c6c206661696c65649f2df0fed2c77648de5860a4cc508cd0818c85b8b8a1ab4ceeef8d981c8956a6a264697066735822122052e861eb5a816449be15fae6d681679653ec61d90d9968521b4732df16489e8164736f6c63430008130033",
    "sourcePath": "/home/nischit/code/dapp/mercle/hardhat_test/hardhat_test/contracts/MembershipNFT.sol",
    "compiler": {
        "name": "solc",
        "version": "0.8.19+commit.7dd6d404"
    },
    "functionHashes": {
        "CLAIM_ISSUER_ROLE()": "a044e70f",
        "DEFAULT_ADMIN_ROLE()": "a217fddf",
        "MINTER_ROLE()": "d5391393",
        "UPGRADER_ROLE()": "f72c0d8b",
        "approve(address,uint256)": "095ea7b3",
        "balanceOf(address)": "70a08231",
        "burn(uint256)": "42966c68",
        "campaignExist(bytes12)": "6122ad06",
        "campaigns(bytes12)": "886fa2e9",
        "communityId()": "7f50861a",
        "createCampaign(bytes12,bytes32,uint64)": "58dbbbf7",
        "creator()": "02d05d3f",
        "description()": "7284e416",
        "disableCampaign(bytes12)": "7082a1f6",
        "getApproved(uint256)": "081812fc",
        "getRoleAdmin(bytes32)": "248a9ca3",
        "grantRole(bytes32,address)": "2f2ff15d",
        "hasRole(bytes32,address)": "91d14854",
        "initialize(address,address,bytes12,string,string,string,bytes12,bytes32,uint64)": "2d06dbaa",
        "isApprovedForAll(address,address)": "e985e9c5",
        "isCampaignActive(bytes12)": "253f077b",
        "isTrustedForwarder(address)": "572b6c05",
        "mintNFT(address,string)": "eacabe14",
        "mintNFTCampaign(bytes12,bytes32[],bytes,address,string)": "54316b6f",
        "name()": "06fdde03",
        "ownerOf(uint256)": "6352211e",
        "proxiableUUID()": "52d1902d",
        "renounceRole(bytes32,address)": "36568abe",
        "revokeRole(bytes32,address)": "d547741f",
        "safeTransferFrom(address,address,uint256)": "42842e0e",
        "safeTransferFrom(address,address,uint256,bytes)": "b88d4fde",
        "setApprovalForAll(address,bool)": "a22cb465",
        "supportsInterface(bytes4)": "01ffc9a7",
        "symbol()": "95d89b41",
        "tokenURI(uint256)": "c87b56dd",
        "transferFrom(address,address,uint256)": "23b872dd",
        "upgradeTo(address)": "3659cfe6",
        "upgradeToAndCall(address,bytes)": "4f1ef286"
    },
    "gasEstimates": {
        "creation": {
            "codeDepositCost": "2917800",
            "executionCost": "infinite",
            "totalCost": "infinite"
        },
        "external": {
            "CLAIM_ISSUER_ROLE()": "240",
            "DEFAULT_ADMIN_ROLE()": "262",
            "MINTER_ROLE()": "infinite",
            "UPGRADER_ROLE()": "327",
            "approve(address,uint256)": "infinite",
            "balanceOf(address)": "2701",
            "burn(uint256)": "infinite",
            "campaignExist(bytes12)": "2698",
            "campaigns(bytes12)": "4783",
            "communityId()": "2395",
            "createCampaign(bytes12,bytes32,uint64)": "infinite",
            "creator()": "2406",
            "description()": "infinite",
            "disableCampaign(bytes12)": "infinite",
            "getApproved(uint256)": "4837",
            "getRoleAdmin(bytes32)": "2534",
            "grantRole(bytes32,address)": "infinite",
            "hasRole(bytes32,address)": "2765",
            "initialize(address,address,bytes12,string,string,string,bytes12,bytes32,uint64)": "infinite",
            "isApprovedForAll(address,address)": "infinite",
            "isCampaignActive(bytes12)": "5024",
            "isTrustedForwarder(address)": "infinite",
            "mintNFT(address,string)": "infinite",
            "mintNFTCampaign(bytes12,bytes32[],bytes,address,string)": "infinite",
            "name()": "infinite",
            "ownerOf(uint256)": "2606",
            "proxiableUUID()": "infinite",
            "renounceRole(bytes32,address)": "infinite",
            "revokeRole(bytes32,address)": "infinite",
            "safeTransferFrom(address,address,uint256)": "infinite",
            "safeTransferFrom(address,address,uint256,bytes)": "infinite",
            "setApprovalForAll(address,bool)": "infinite",
            "supportsInterface(bytes4)": "infinite",
            "symbol()": "infinite",
            "tokenURI(uint256)": "infinite",
            "transferFrom(address,address,uint256)": "infinite",
            "upgradeTo(address)": "infinite",
            "upgradeToAndCall(address,bytes)": "infinite"
        },
        "internal": {
            "_authorizeUpgrade(address)": "infinite",
            "_beforeTokenTransfer(address,address,uint256,uint256)": "infinite",
            "_burn(uint256)": "infinite",
            "_canUserMintCampaign(bytes12,bytes32[] memory,bytes memory)": "infinite",
            "_getId(string memory)": "infinite",
            "_isAllowed(bytes12,bytes32[] memory,bytes32)": "infinite",
            "_mintNFT(address,string memory)": "infinite",
            "_msgData()": "infinite",
            "_msgSender()": "infinite",
            "_setCampaignState(bytes12,address)": "24434"
        }
    }
}